:100000000C945D000C9485000C9485000C94850084
:100010000C9485000C9485000C9485000C9485004C
:100020000C9485000C9485000C9485000C9485003C
:100030000C9485000C9485000C9485000C9485002C
:100040000C9420030C9485000C9485000C9485007E
:100050000C9485000C9485000C9485000C9485000C
:100060000C9485000C94850000000008000201003B
:100070000003040700000000000000000000000072
:10008000250028002B0000000000240027002A0083
:10009000040404040404040402020202020203032E
:1000A0000303030301020408102040800102040836
:1000B00010200102040810207B0411241FBECFEF82
:1000C000D8E0DEBFCDBF11E0A0E0B1E0E6E8F9E0A6
:1000D00002C005900D92AE33B107D9F721E0AEE32F
:1000E000B1E001C01D92AF35B207E1F710E0CDE5F8
:1000F000D0E004C02197FE010E94BB04CC35D1079B
:10010000C9F70E946A030C94C1040C94000090E0AB
:10011000FC01EC55FF4F249180579F4FFC018491C7
:10012000882399F090E0880F991FFC01EA57FF4F50
:10013000A591B491FC01E458FF4F859194918FB73C
:10014000F894EC91E22BEC938FBF089590E0FC01C2
:10015000E859FF4F2491FC01EC55FF4F3491FC010D
:10016000E057FF4FE491EE23C9F0222339F023300A
:1001700001F1A8F4213019F1223029F1F0E0EE0F5D
:10018000FF1FE458FF4FA591B4918FB7F894EC91FD
:10019000611126C030953E233C938FBF08952730D0
:1001A000A9F02830C9F0243049F7809180008F7D74
:1001B00003C0809180008F7780938000DFCF84B56B
:1001C0008F7784BDDBCF84B58F7DFBCF8091B0006E
:1001D0008F778093B000D2CF8091B0008F7DF9CF20
:1001E0003E2BDACF3FB7F8948091430190914401C0
:1001F000A0914501B091460126B5A89B05C02F3FAF
:1002000019F00196A11DB11D3FBFBA2FA92F982F3C
:100210008827BC01CD01620F711D811D911D42E037
:10022000660F771F881F991F4A95D1F708958F92FF
:100230009F92AF92BF92CF92DF92EF92FF924B01CB
:100240005C010E94F2006B017C010E94F2006C19BB
:100250007D098E099F09683E734081059105A8F3C9
:1002600021E0821A9108A108B10888EEC80E83E047
:10027000D81EE11CF11C81149104A104B10429F7DA
:10028000FF90EF90DF90CF90BF90AF909F908F90B6
:100290000895AF92BF92CF92DF92EF92FF920F93A9
:1002A0001F93CF93DF936C017B018B01040F151F0C
:1002B000EB015E01AE18BF08C017D10759F0699174
:1002C000D601ED91FC910190F081E02DC6010995D8
:1002D000892B79F7C501DF91CF911F910F91FF9085
:1002E000EF90DF90CF90BF90AF900895089590E089
:1002F00080E00895FC0101900020E9F73197AF01FB
:10030000481B590BBC0187E491E00C9449018F9282
:100310009F92AF92BF920F931F93CF93DF93CDB76E
:10032000DEB7A1970FB6F894DEBF0FBECDBF19A2FE
:10033000423008F44AE08E010F5D1F4F842E912C4D
:10034000B12CA12CA50194010E949904E62FB901BA
:10035000CA01EA30F4F4E05DD801EE938D01232B5D
:10036000242B252B79F790E080E0109719F0CD0130
:100370000E947A01A1960FB6F894DEBF0FBECDBFE2
:10038000DF91CF911F910F91BF90AF909F908F9071
:100390000895E95CE1CFCF93DF93EC0160E08E81BB
:1003A0000E94A60061E08E810E94A60060E08E811E
:1003B0000E94A6008BE891E00197F1F7DF91CF91C1
:1003C0000895CF92DF92EF92FF920F931F93CF93F6
:1003D000DF936C017C0187E0E80EF11CD0E0C0E007
:1003E000062F10E0B8010C2E02C0759567950A948F
:1003F000E2F76170F70181917F010E94A6002196CA
:10040000C430D10579F7C601DF91CF911F910F91CB
:10041000FF90EF90DF90CF900C94CB01CF92DF92C2
:10042000EF92FF920F931F93CF93DF93EC01F62E81
:10043000642F8C810E94A6008D818F3F19F060E0AF
:100440000E94A6000F2D10E08F8584FF25C06E014D
:1004500087E0C80ED11CF12CE12CB8010E2C02C093
:10046000759567950A94E2F76170F60181916F01C5
:100470000E94A600FFEFEF1AFF0A88E0E816F104D9
:1004800061F7CE01DF91CF911F910F91FF90EF9017
:10049000DF90CF900C94CB01B80184E075956795FF
:1004A0008A95E1F7CE010E94E1016F2DCE01DF9127
:1004B000CF911F910F91FF90EF90DF90CF900C9410
:1004C000E10140E0682F87E491E00C940E0281E0A6
:1004D0000E9461028BE39FE10197F1F70895CF93AA
:1004E000DF93823029F490915601986090935601E1
:1004F00080935A0110925B0180E480935C0180E15B
:1005000080935D0180E580935E0180914B010E94A4
:10051000870080914C018F3F11F00E9487008091ED
:100520004D010E948700C7E4D1E09E01275431406D
:100530008091560184FD0AC084E090E0219628173E
:1005400039073CF48E810E948700EFCF88E090E06D
:10055000F5CF8BE39DE00197F1F760E080914B01CF
:100560000E94A60060E080914D010E94A60080914B
:100570004C018F3F19F060E00E94A6008091560167
:1005800084FD34C063E087E491E00E94E101CBE4A4
:10059000D6E4CE010197F1F763E087E491E00E9491
:1005A000E1012197F1F763E087E491E00E94E10126
:1005B00083E592E00197F1F762E087E491E00E9421
:1005C000E1018091560180620E94610284E0809383
:1005D00057018CE00E9461020E94670282E08093D2
:1005E000580186E0DF91CF910C94610280620E94F5
:1005F00061028BE496E40197F1F7809156018062E5
:100600000E94610283E592E00197F1F78091560123
:1006100080620E946102D5CF90915A01891710F033
:100620008FEF890FE82FF0E0E95BFE4F8489806847
:100630000C94610241E00E940E0281E090E0089576
:100640001F920F920FB60F9211242F933F938F9307
:100650009F93AF93BF9380913F0190914001A091F0
:100660004101B091420130913E0123E0230F2D372B
:1006700058F50196A11DB11D20933E0180933F01C5
:1006800090934001A0934101B093420180914301B6
:1006900090914401A0914501B09146010196A11DA0
:1006A000B11D8093430190934401A0934501B09301
:1006B0004601BF91AF919F918F913F912F910F90E4
:1006C0000FBE0F901F90189526E8230F0296A11DCC
:1006D000B11DD2CF789484B5826084BD84B5816029
:1006E00084BD85B5826085BD85B5816085BD8091FD
:1006F0006E00816080936E00109281008091810075
:10070000826080938100809181008160809381006C
:10071000809180008160809380008091B10084602E
:100720008093B1008091B00081608093B00080918F
:100730007A00846080937A0080917A00826080934E
:100740007A0080917A00816080937A0080917A00AB
:10075000806880937A001092C10082E00E946F024C
:1007600080E00E940C0384E191E00E947A01809174
:100770005801982F91609093580185600E94610202
:10078000809158018E7F8093580184600E9461029D
:1007900080915701982F91609093570189600E9432
:1007A0006102809157018E7F8093570188600E947B
:1007B000610280915701982F9260909357018A604F
:1007C0000E946102809157018D7F8093570188605C
:1007D0000E946102809157018B7F8093570188604E
:1007E0000E94610280915701982F94609093570165
:1007F0008C600E9461020E94670280E40E94610294
:10080000C0E0D1E0699187E491E00E941A0381E0A1
:10081000C830D807B9F70E94670280E00E940C0335
:1008200080E291E00E947A014AE06CE070E080E0B2
:1008300090E00E94870141E06EE287E491E00E942F
:100840000E024AE063E070E080E090E00E948701E1
:100850004AE065E070E080E090E00E94870160E09F
:1008600087E491E00E941A0381E00E940C034AE0B1
:1008700061EE70E180E090E00E9487016CE271E03F
:1008800080E090E00E9417010E94670280E00E94D1
:100890000C0386E291E00E947A0181E00E940C0341
:1008A00082E391E00E947A0164E670E080E090E0EB
:1008B0000E941701C5E0D0E08CE10E94610264E66D
:1008C00070E080E090E00E9417012197A9F7C5E051
:1008D000D0E088E10E94610264E670E080E090E090
:1008E0000E9417012197A9F7C0E0D0E02097F1F30B
:1008F0000E940000FBCFE7E4F1E0138212828CE05B
:1009000091E09183808382E084838FEF858383E00D
:10091000868384E0878385E0808786E0818787E01F
:1009200082871386148615861686178681E00C94B6
:100930006F02A1E21A2EAA1BBB1BFD010DC0AA1F4C
:10094000BB1FEE1FFF1FA217B307E407F50720F038
:10095000A21BB30BE40BF50B661F771F881F991FB3
:100960001A9469F760957095809590959B01AC01FC
:10097000BD01CF010895EE0FFF1F0590F491E02D0A
:060980000994F894FFCF7A
:100986008894888384848380000000001A034901C8
:10099600770176014C6F6164696E67202E2E2E00FA
:1009A60054656D703A0048656C6C6F20576F726CB9
:0E09B6006400436F6E666967204C4344000086
:00000001FF
