:100000000C945D000C9485000C9485000C94850084
:100010000C9485000C9485000C9485000C9485004C
:100020000C9485000C9485000C9485000C9485003C
:100030000C9485000C9485000C9485000C9485002C
:100040000C94E0020C9485000C9485000C948500BF
:100050000C9485000C9485000C9485000C9485000C
:100060000C9485000C94850000000008000201003B
:100070000003040700000000000000000000000072
:10008000250028002B0000000000240027002A0083
:10009000040404040404040402020202020203032E
:1000A0000303030301020408102040800102040836
:1000B0001020010204081020EB0411241FBECFEF12
:1000C000D8E0DEBFCDBF11E0A0E0B1E0EEEDFEE094
:1000D00002C005900D92A833B107D9F721E0A8E33B
:1000E000B1E001C01D92A935B207E1F710E0CDE5FE
:1000F000D0E004C02197FE010E946707CC35D107EC
:10010000C9F70E942A030C946D070C94000090E03C
:10011000FC01EC55FF4F249180579F4FFC018491C7
:10012000882399F090E0880F991FFC01EA57FF4F50
:10013000A591B491FC01E458FF4F859194918FB73C
:10014000F894EC91E22BEC938FBF089590E0FC01C2
:10015000E859FF4F2491FC01EC55FF4F3491FC010D
:10016000E057FF4FE491EE23C9F0222339F023300A
:1001700001F1A8F4213019F1223029F1F0E0EE0F5D
:10018000FF1FE458FF4FA591B4918FB7F894EC91FD
:10019000611126C030953E233C938FBF08952730D0
:1001A000A9F02830C9F0243049F7809180008F7D74
:1001B00003C0809180008F7780938000DFCF84B56B
:1001C0008F7784BDDBCF84B58F7DFBCF8091B0006E
:1001D0008F778093B000D2CF8091B0008F7DF9CF20
:1001E0003E2BDACF3FB7F89480913D0190913E01CC
:1001F000A0913F01B091400126B5A89B05C02F3FBB
:1002000019F00196A11DB11D3FBFBA2FA92F982F3C
:100210008827BC01CD01620F711D811D911D42E037
:10022000660F771F881F991F4A95D1F70895AF92DF
:10023000BF92CF92DF92EF92FF920F931F93CF93D3
:10024000DF936C017B018B01040F151FEB015E0135
:10025000AE18BF08C017D10759F06991D601ED91CA
:10026000FC910190F081E02DC6010995892B79F769
:10027000C501DF91CF911F910F91FF90EF90DF901B
:10028000CF90BF90AF900895089590E080E00895DA
:10029000FC0101900020E9F73197AF01481B590B91
:1002A000BC0181E491E00C9417018F929F92AF9270
:1002B000BF920F931F93CF93DF93CDB7DEB7A19774
:1002C0000FB6F894DEBF0FBECDBF19A2423008F4BE
:1002D0004AE08E010F5D1F4F842E912CB12CA12C72
:1002E000A50194010E944507E62FB901CA01EA3031
:1002F000F4F4E05DD801EE938D01232B242B252B04
:1003000079F790E080E0109719F0CD010E94480144
:10031000A1960FB6F894DEBF0FBECDBFDF91CF918F
:100320001F910F91BF90AF909F908F900895E95CBF
:10033000E1CFCF93DF93EC0160E08E810E94A600B5
:1003400061E08E810E94A60060E08E810E94A6007E
:100350008BE891E00197F1F7DF91CF910895CF926B
:10036000DF92EF92FF920F931F93CF93DF936C0175
:100370007C0187E0E80EF11CD0E0C0E0062F10E021
:10038000B8010C2E02C0759567950A94E2F761706A
:10039000F70181917F010E94A6002196C430D1050A
:1003A00079F7C601DF91CF911F910F91FF90EF90E8
:1003B000DF90CF900C949901CF92DF92EF92FF9251
:1003C0000F931F93CF93DF93EC01F62E642F8C8154
:1003D0000E94A6008D818F3F19F060E00E94A60068
:1003E0000F2D10E08F8584FF25C06E0187E0C80EB9
:1003F000D11CF12CE12CB8010E2C02C0759567952B
:100400000A94E2F76170F60181916F010E94A600E3
:10041000FFEFEF1AFF0A88E0E816F10461F7CE015A
:10042000DF91CF911F910F91FF90EF90DF90CF90D0
:100430000C949901B80184E0759567958A95E1F768
:10044000CE010E94AF016F2DCE01DF91CF911F91A0
:100450000F91FF90EF90DF90CF900C94AF0140E0B0
:10046000682F81E491E00C94DC0181E00E942F026E
:100470008BE39FE10197F1F70895CF93DF938230EB
:1004800029F4909150019860909350018093540109
:100490001092550180E48093560180E180935701CA
:1004A00080E580935801809145010E9487008091EA
:1004B00046018F3F11F00E948700809147010E9402
:1004C0008700C1E4D1E09E01215431408091500168
:1004D00084FD0AC084E090E02196281739073CF497
:1004E0008E810E948700EFCF88E090E0F5CF8BE30C
:1004F0009DE00197F1F760E0809145010E94A60020
:1005000060E0809147010E94A600809146018F3FE4
:1005100019F060E00E94A6008091500184FD34C073
:1005200063E081E491E00E94AF01CBE4D6E4CE0128
:100530000197F1F763E081E491E00E94AF01219718
:10054000F1F763E081E491E00E94AF0183E592E07E
:100550000197F1F762E081E491E00E94AF018091A0
:10056000500180620E942F0284E0809351018CE050
:100570000E942F020E94350282E08093520186E0A1
:10058000DF91CF910C942F0280620E942F028BE4A6
:1005900096E40197F1F78091500180620E942F024A
:1005A00083E592E00197F1F78091500180620E940B
:1005B0002F02D5CF41E00E94DC0181E090E0089558
:1005C0001F920F920FB60F9211242F933F938F9388
:1005D0009F93AF93BF938091390190913A01A0917D
:1005E0003B01B0913C013091380123E0230F2D37BE
:1005F00058F50196A11DB11D209338018093390152
:1006000090933A01A0933B01B0933C0180913D014E
:1006100090913E01A0913F01B09140010196A11D32
:10062000B11D80933D0190933E01A0933F01B09393
:100630004001BF91AF919F918F913F912F910F906A
:100640000FBE0F901F90189526E8230F0296A11D4C
:10065000B11DD2CF789484B5826084BD84B58160A9
:1006600084BD85B5826085BD85B5816085BD80917D
:100670006E00816080936E001092810080918100F5
:1006800082608093810080918100816080938100ED
:10069000809180008160809380008091B1008460AF
:1006A0008093B1008091B00081608093B000809110
:1006B0007A00846080937A0080917A0082608093CF
:1006C0007A0080917A00816080937A0080917A002C
:1006D000806880937A001092C10082E00E943D02FF
:1006E000E1E0809154018111E0E0E195F0E0EF5B01
:1006F000FE4F848980680E942F028DE091E00E9465
:10070000480180915201982F916090935201856029
:100710000E942F02809152018E7F8093520184604B
:100720000E942F0280915101982F91609093510166
:1007300089600E942F02809151018E7F8093510128
:1007400088600E942F0280915101982F92609093AF
:1007500051018A600E942F02809151018D7F809308
:10076000510188600E942F02809151018B7F8093FC
:10077000510188600E942F0280915101982F94604E
:10078000909351018C600E942F020E94350281E0FB
:1007900080930001C0E0D0E08091000120E4829FBE
:1007A000C001112480937C0080917A008064809342
:1007B0007A0080917A0086FDFCCF6091780070917C
:1007C0007900072E000C880B990B0E941E0620E072
:1007D00030E44CE955E40E94D30620E030EC4FE7CA
:1007E00054E40E947B056B017C010E943502E1E02C
:1007F000809154018111E0E0E195F0E0EF5BFE4F64
:10080000848980680E942F0289E191E00E9448015A
:10081000A7019601C701B6010E944007882309F489
:1008200044C08DE191E00E94480189E291E00E947C
:100830004801E0915401E23008F0CBC0E150F0E013
:10084000EF5BFE4F848980680E942F028CE291E06A
:100850000E9448010E94F2004B015C0184EFC82E07
:10086000DD24D394E12CF12C0E94F200681979095F
:100870008A099B09683E734081059105A8F381E0D0
:10088000C81AD108E108F10828EE820E23E0921E72
:10089000A11CB11CC114D104E104F10429F7209773
:1008A00009F47ACF0E94000077CF46015701E894FF
:1008B000B7F82FEF3FEF4FE75FE7C501B4010E94A4
:1008C000400781110DC02FEF3FEF4FE75FE7C501F4
:1008D000B4010E94760518161CF481E291E0A3CFC2
:1008E0002FEF3FEF4FE75FE4C701B6010E94CE064E
:1008F00018161CF485E291E096CF2FEF3FEF4FE7FB
:100900005FECC701B6010E94760587FDF3CF20E0BA
:1009100030E0A901C701B6010E94760587FF0AC031
:1009200041E06DE281E491E00E94DC01F7FAF0948D
:10093000F7F8F0942AE037ED43EA5BE3C701B6012C
:100940000E940A054B015C010E94ED056B017C01D0
:100950000E941C069B01AC01C501B4010E9409055F
:100960004B015C014AE0C701B6010E94550141E01C
:100970006EE281E491E00E94DC0120E030E040E2A0
:1009800051E4C501B4010E94D3064B015C010E94F1
:10099000ED056B01F12CE12C4AE0C701B6010E9484
:1009A0005501C701B6010E941C069B01AC01C5019F
:1009B000B4010E94090520E030E040E251E40E94C9
:1009C000D3060E94ED0590E080E04AE00E945501C8
:1009D0002CCFE1E034CFE1E4F1E01382128285E034
:1009E00091E09183808382E084838FEF858383E02D
:1009F000868384E0878385E0808786E0818787E03F
:100A000082871386148615861686178681E00C94D5
:100A10003D025058BB27AA270E9421050C9494063A
:100A20000E94860638F00E948D0620F039F49F3F20
:100A300019F426F40C9483060EF4E095E7FB0C946D
:100A40007D06E92F0E94A50658F3BA1762077307BF
:100A50008407950720F079F4A6F50C94C7060EF4E8
:100A6000E0950B2EBA2FA02D0B01B90190010C01BE
:100A7000CA01A0011124FF27591B99F0593F50F4D6
:100A8000503E68F11A16F040A22F232F342F44272E
:100A9000585FF3CF469537952795A795F040539526
:100AA000C9F77EF41F16BA0B620B730B840BBAF0F6
:100AB0009150A1F0FF0FBB1F661F771F881FC2F761
:100AC0000EC0BA0F621F731F841F48F48795779575
:100AD0006795B795F7959E3F08F0B0CF9395880F2F
:100AE00008F09927EE0F9795879508950E9459066B
:100AF00008F481E008950E948F050C9494060E94EA
:100B00008D0658F00E94860640F029F45F3F29F0D8
:100B10000C947D0651110C94C8060C9483060E9417
:100B2000A50668F39923B1F3552391F3951B550B53
:100B3000BB27AA2762177307840738F09F5F5F4FB0
:100B4000220F331F441FAA1FA9F335D00E2E3AF0EF
:100B5000E0E832D091505040E695001CCAF72BD007
:100B6000FE2F29D0660F771F881FBB1F2617370758
:100B70004807AB07B0E809F0BB0B802DBF01FF278A
:100B800093585F4F3AF09E3F510578F00C947D06E4
:100B90000C94C8065F3FE4F3983ED4F386957795AE
:100BA0006795B795F7959F5FC9F7880F911D969543
:100BB000879597F90895E1E0660F771F881FBB1F9F
:100BC000621773078407BA0720F0621B730B840B4C
:100BD000BA0BEE1F88F7E09508950E94AD0688F0E5
:100BE0009F5798F0B92F9927B751B0F0E1F0660FF1
:100BF000771F881F991F1AF0BA95C9F714C0B13032
:100C000091F00E94C706B1E008950C94C706672FC3
:100C1000782F8827B85F39F0B93FCCF38695779560
:100C20006795B395D9F73EF4909580957095619549
:100C30007F4F8F4F9F4F0895E89409C097FB3EF474
:100C400090958095709561957F4F8F4F9F4F992319
:100C5000A9F0F92F96E9BB279395F6958795779597
:100C60006795B795F111F8CFFAF4BB0F11F460FF57
:100C70001BC06F5F7F4F8F4F9F4F16C0882311F0AF
:100C800096E911C0772321F09EE8872F762F05C0C3
:100C9000662371F096E8862F70E060E02AF09A955E
:100CA000660F771F881FDAF7880F9695879597F953
:100CB0000895990F0008550FAA0BE0E8FEEF1616ED
:100CC0001706E807F907C0F012161306E407F50740
:100CD00098F0621B730B840B950B39F40A2661F0B4
:100CE000232B242B252B21F408950A2609F4A14057
:100CF000A6958FEF811D811D089597F99F6780E864
:100D000070E060E008959FEF80EC089500240A945D
:100D10001616170618060906089500240A941216D6
:100D20001306140605060895092E0394000C11F409
:100D3000882352F0BB0F40F4BF2B11F460FF04C0B6
:100D40006F5F7F4F8F4F9F4F089557FD9058440F0F
:100D5000551F59F05F3F71F04795880F97FB991F1A
:100D600061F09F3F79F087950895121613061406D7
:100D7000551FF2CF4695F1DF08C016161706180664
:100D8000991FF1CF86957105610508940895E8943F
:100D9000BB2766277727CB0197F908950E9459064C
:100DA00008F48FEF08950E94E6060C9494060E94C2
:100DB000860638F00E948D0620F0952311F00C94E1
:100DC0007D060C94830611240C94C8060E94A50687
:100DD00070F3959FC1F3950F50E0551F629FF0018E
:100DE000729FBB27F00DB11D639FAA27F00DB11DA7
:100DF000AA1F649F6627B00DA11D661F829F222730
:100E0000B00DA11D621F739FB00DA11D621F839FB6
:100E1000A00D611D221F749F3327A00D611D231F8C
:100E2000849F600D211D822F762F6A2F11249F57DA
:100E300050409AF0F1F088234AF0EE0FFF1FBB1FDD
:100E4000661F771F881F91505040A9F79E3F51059C
:100E500080F00C947D060C94C8065F3FE4F3983E46
:100E6000D4F3869577956795B795F795E7959F5F46
:100E7000C1F7FE2B880F911D9695879597F90895D8
:100E80000E945906880B990B0895A1E21A2EAA1BFD
:100E9000BB1BFD010DC0AA1FBB1FEE1FFF1FA2172A
:100EA000B307E407F50720F0A21BB30BE40BF50B27
:100EB000661F771F881F991F1A9469F760957095B0
:100EC000809590959B01AC01BD01CF010895EE0F77
:0E0ED000FF1F0590F491E02D0994F894FFCFD8
:100EDE000100000000DA021701450144014C6F6168
:100EEE0064696E67202E2E2E00496E3A006E616E7A
:100EFE0000696E66006F7666006D5600436F6E6613
:080F0E00696720414443000023
:00000001FF
