:100000000C945D000C9485000C9485000C94850084
:100010000C9485000C9485000C9485000C9485004C
:100020000C9485000C9485000C9485000C9485003C
:100030000C9485000C9485000C9485000C9485002C
:100040000C94E0020C9485000C9485000C948500BF
:100050000C9485000C9485000C9485000C9485000C
:100060000C9485000C94850000000008000201003B
:100070000003040700000000000000000000000072
:10008000250028002B0000000000240027002A0083
:10009000040404040404040402020202020203032E
:1000A0000303030301020408102040800102040836
:1000B0001020010204081020BD0411241FBECFEF40
:1000C000D8E0DEBFCDBF11E0A0E0B1E0E2E8FEE0A5
:1000D00002C005900D92A034B107D9F721E0A0E449
:1000E000B1E001C01D92A136B207E1F710E0CDE505
:1000F000D0E004C02197FE010E943907CC35D1071A
:10010000C9F70E942A030C943F070C94000090E06A
:10011000FC01EC55FF4F249180579F4FFC018491C7
:10012000882399F090E0880F991FFC01EA57FF4F50
:10013000A591B491FC01E458FF4F859194918FB73C
:10014000F894EC91E22BEC938FBF089590E0FC01C2
:10015000E859FF4F2491FC01EC55FF4F3491FC010D
:10016000E057FF4FE491EE23C9F0222339F023300A
:1001700001F1A8F4213019F1223029F1F0E0EE0F5D
:10018000FF1FE458FF4FA591B4918FB7F894EC91FD
:10019000611126C030953E233C938FBF08952730D0
:1001A000A9F02830C9F0243049F7809180008F7D74
:1001B00003C0809180008F7780938000DFCF84B56B
:1001C0008F7784BDDBCF84B58F7DFBCF8091B0006E
:1001D0008F778093B000D2CF8091B0008F7DF9CF20
:1001E0003E2BDACF3FB7F8948091450190914601BC
:1001F000A0914701B091480126B5A89B05C02F3FAB
:1002000019F00196A11DB11D3FBFBA2FA92F982F3C
:100210008827BC01CD01620F711D811D911D42E037
:10022000660F771F881F991F4A95D1F70895AF92DF
:10023000BF92CF92DF92EF92FF920F931F93CF93D3
:10024000DF936C017B018B01040F151FEB015E0135
:10025000AE18BF08C017D10759F06991D601ED91CA
:10026000FC910190F081E02DC6010995892B79F769
:10027000C501DF91CF911F910F91FF90EF90DF901B
:10028000CF90BF90AF900895089590E080E00895DA
:10029000FC0101900020E9F73197AF01481B590B91
:1002A000BC0189E491E00C9417018F929F92AF9268
:1002B000BF920F931F93CF93DF93CDB7DEB7A19774
:1002C0000FB6F894DEBF0FBECDBF19A2423008F4BE
:1002D0004AE08E010F5D1F4F842E912CB12CA12C72
:1002E000A50194010E941707E62FB901CA01EA305F
:1002F000F4F4E05DD801EE938D01232B242B252B04
:1003000079F790E080E0109719F0CD010E94480144
:10031000A1960FB6F894DEBF0FBECDBFDF91CF918F
:100320001F910F91BF90AF909F908F900895E95CBF
:10033000E1CFCF93DF93EC0160E08E810E94A600B5
:1003400061E08E810E94A60060E08E810E94A6007E
:100350008BE891E00197F1F7DF91CF910895CF926B
:10036000DF92EF92FF920F931F93CF93DF936C0175
:100370007C0187E0E80EF11CD0E0C0E0062F10E021
:10038000B8010C2E02C0759567950A94E2F761706A
:10039000F70181917F010E94A6002196C430D1050A
:1003A00079F7C601DF91CF911F910F91FF90EF90E8
:1003B000DF90CF900C949901CF92DF92EF92FF9251
:1003C0000F931F93CF93DF93EC01F62E642F8C8154
:1003D0000E94A6008D818F3F19F060E00E94A60068
:1003E0000F2D10E08F8584FF25C06E0187E0C80EB9
:1003F000D11CF12CE12CB8010E2C02C0759567952B
:100400000A94E2F76170F60181916F010E94A600E3
:10041000FFEFEF1AFF0A88E0E816F10461F7CE015A
:10042000DF91CF911F910F91FF90EF90DF90CF90D0
:100430000C949901B80184E0759567958A95E1F768
:10044000CE010E94AF016F2DCE01DF91CF911F91A0
:100450000F91FF90EF90DF90CF900C94AF0140E0B0
:10046000682F89E491E00C94DC0181E00E942F0266
:100470008BE39FE10197F1F70895CF93DF938230EB
:1004800029F49091580198609093580180935C01F1
:1004900010925D0180E480935E0180E180935F01B2
:1004A00080E58093600180914D010E9487008091DA
:1004B0004E018F3F11F00E94870080914F010E94F2
:1004C0008700C9E4D1E09E01295431408091580150
:1004D00084FD0AC084E090E02196281739073CF497
:1004E0008E810E948700EFCF88E090E0F5CF8BE30C
:1004F0009DE00197F1F760E080914D010E94A60018
:1005000060E080914F010E94A60080914E018F3FD4
:1005100019F060E00E94A6008091580184FD34C06B
:1005200063E089E491E00E94AF01CBE4D6E4CE0120
:100530000197F1F763E089E491E00E94AF01219710
:10054000F1F763E089E491E00E94AF0183E592E076
:100550000197F1F762E089E491E00E94AF01809198
:10056000580180620E942F0284E0809359018CE040
:100570000E942F020E94350282E080935A0186E099
:10058000DF91CF910C942F0280620E942F028BE4A6
:1005900096E40197F1F78091580180620E942F0242
:1005A00083E592E00197F1F78091580180620E9403
:1005B0002F02D5CF41E00E94DC0181E090E0089558
:1005C0001F920F920FB60F9211242F933F938F9388
:1005D0009F93AF93BF938091410190914201A0916D
:1005E0004301B09144013091400123E0230F2D37A6
:1005F00058F50196A11DB11D209340018093410142
:1006000090934201A0934301B0934401809145012E
:1006100090914601A0914701B09148010196A11D1A
:10062000B11D8093450190934601A0934701B0937B
:100630004801BF91AF919F918F913F912F910F9062
:100640000FBE0F901F90189526E8230F0296A11D4C
:10065000B11DD2CF789484B5826084BD84B58160A9
:1006600084BD85B5826085BD85B5816085BD80917D
:100670006E00816080936E001092810080918100F5
:1006800082608093810080918100816080938100ED
:10069000809180008160809380008091B1008460AF
:1006A0008093B1008091B00081608093B000809110
:1006B0007A00846080937A0080917A0082608093CF
:1006C0007A0080917A00816080937A0080917A002C
:1006D000806880937A001092C10082E00E943D02FF
:1006E000E1E080915C018111E0E0E195F0E0E75B01
:1006F000FE4F848980680E942F0285E191E00E946C
:1007000048010E94350280E40E942F02C0E0D1E03F
:1007100008E011E0699189E491E00E94DA020C1787
:100720001D07C1F781E080930801C0E0D0E080910F
:10073000080120E4829FC001112480937C008091F5
:100740007A00806480937A0080917A0086FDFCCFE5
:100750006091780070917900072E000C880B990B3E
:100760000E94F00520E030E44CE955E40E94A50623
:1007700020E030EC4FE754E40E944D0520E030E0EB
:1007800040E251E40E944D056B017C010E9435025C
:10079000E1E080915C018111E0E0E195F0E0E75B50
:1007A000FE4F848980680E942F0281E291E00E94BE
:1007B0004801A7019601C701B6010E9412078823CC
:1007C00009F445C087E291E00E94480160E089E4B5
:1007D00091E00E94DA02E0915C01E23008F0CBC0C7
:1007E000E150F0E0E75BFE4F848980680E942F02B1
:1007F00083E391E00E9448010E94F2004B015C01FA
:1008000084EFC82EDD24D394E12CF12C0E94F20059
:10081000681979098A099B09683E73408105910529
:10082000A8F381E0C81AD108E108F10828EE820E89
:1008300023E0921EA11CB11CC114D104E104F104F7
:1008400029F7209709F473CF0E94000070CF46016A
:100850005701E894B7F82FEF3FEF4FE75FE7C50187
:10086000B4010E94120781110DC02FEF3FEF4FE737
:100870005FE7C501B4010E94480518161CF48BE21D
:1008800091E0A2CF2FEF3FEF4FE75FE4C701B60142
:100890000E94A00618161CF48FE291E095CF2FEF6E
:1008A0003FEF4FE75FECC701B6010E94480587FDA7
:1008B000F3CF20E030E0A901C701B6010E9448054E
:1008C00087FF0AC041E06DE289E491E00E94DC010B
:1008D000F7FAF094F7F8F0942AE037ED43EA5BE397
:1008E000C701B6010E94DC044B015C010E94BF05F8
:1008F0006B017C010E94EE059B01AC01C501B401B6
:100900000E94DB044B015C014AE0C701B6010E9472
:10091000550141E06EE289E491E00E94DC0120E0B3
:1009200030E040E251E4C501B4010E94A5064B014C
:100930005C010E94BF056B01F12CE12C4AE0C7016C
:10094000B6010E945501C701B6010E94EE059B0148
:10095000AC01C501B4010E94DB0420E030E040E2BC
:1009600051E40E94A5060E94BF0590E080E04AE0A5
:100970000E9455012BCFE1E034CFE9E4F1E013828E
:1009800012828DE091E09183808382E084838FEFF7
:10099000858383E0868384E0878385E0808786E0A3
:1009A000818787E0828713861486158616861786C8
:1009B00081E00C943D025058BB27AA270E94F30403
:1009C0000C9466060E94580638F00E945F0620F0DC
:1009D00039F49F3F19F426F40C9455060EF4E09573
:1009E000E7FB0C944F06E92F0E94770658F3BA17DD
:1009F000620773078407950720F079F4A6F50C9435
:100A000099060EF4E0950B2EBA2FA02D0B01B9011B
:100A100090010C01CA01A0011124FF27591B99F074
:100A2000593F50F4503E68F11A16F040A22F232F80
:100A3000342F4427585FF3CF469537952795A795D0
:100A4000F0405395C9F77EF41F16BA0B620B730B77
:100A5000840BBAF09150A1F0FF0FBB1F661F771FE8
:100A6000881FC2F70EC0BA0F621F731F841F48F49D
:100A7000879577956795B795F7959E3F08F0B0CF26
:100A80009395880F08F09927EE0F9795879508950D
:100A90000E942B0608F481E008950E9461050C94E1
:100AA00066060E945F0658F00E94580640F029F43E
:100AB0005F3F29F00C944F0651110C949A060C9448
:100AC00055060E94770668F39923B1F3552391F3F5
:100AD000951B550BBB27AA2762177307840738F0AD
:100AE0009F5F5F4F220F331F441FAA1FA9F335D00A
:100AF0000E2E3AF0E0E832D091505040E695001CBE
:100B0000CAF72BD0FE2F29D0660F771F881FBB1F77
:100B1000261737074807AB07B0E809F0BB0B802D55
:100B2000BF01FF2793585F4F3AF09E3F510578F081
:100B30000C944F060C949A065F3FE4F3983ED4F36E
:100B4000869577956795B795F7959F5FC9F7880F55
:100B5000911D9695879597F90895E1E0660F771FA7
:100B6000881FBB1F621773078407BA0720F0621B38
:100B7000730B840BBA0BEE1F88F7E09508950E9463
:100B80007F0688F09F5798F0B92F9927B751B0F09A
:100B9000E1F0660F771F881F991F1AF0BA95C9F701
:100BA00014C0B13091F00E949906B1E008950C9400
:100BB0009906672F782F8827B85F39F0B93FCCF3B3
:100BC000869577956795B395D9F73EF4909580957E
:100BD000709561957F4F8F4F9F4F0895E89409C09E
:100BE00097FB3EF490958095709561957F4F8F4F60
:100BF0009F4F9923A9F0F92F96E9BB279395F69576
:100C0000879577956795B795F111F8CFFAF4BB0FF3
:100C100011F460FF1BC06F5F7F4F8F4F9F4F16C057
:100C2000882311F096E911C0772321F09EE8872FE1
:100C3000762F05C0662371F096E8862F70E060E09D
:100C40002AF09A95660F771F881FDAF7880F969516
:100C5000879597F90895990F0008550FAA0BE0E8BA
:100C6000FEEF16161706E807F907C0F0121613066E
:100C7000E407F50798F0621B730B840B950B39F4AE
:100C80000A2661F0232B242B252B21F408950A2614
:100C900009F4A140A6958FEF811D811D089597F954
:100CA0009F6780E870E060E008959FEF80EC089512
:100CB00000240A941616170618060906089500243B
:100CC0000A9412161306140605060895092E0394B5
:100CD000000C11F4882352F0BB0F40F4BF2B11F429
:100CE00060FF04C06F5F7F4F8F4F9F4F089557FD88
:100CF0009058440F551F59F05F3F71F04795880F8A
:100D000097FB991F61F09F3F79F087950895121620
:100D100013061406551FF2CF4695F1DF08C01616CC
:100D200017061806991FF1CF86957105610508947D
:100D30000895E894BB2766277727CB0197F9089594
:100D40000E942B0608F48FEF08950E94B8060C94B9
:100D500066060E94580638F00E945F0620F0952330
:100D600011F00C944F060C94550611240C949A061D
:100D70000E94770670F3959FC1F3950F50E0551FC1
:100D8000629FF001729FBB27F00DB11D639FAA27E0
:100D9000F00DB11DAA1F649F6627B00DA11D661F2F
:100DA000829F2227B00DA11D621F739FB00DA11D50
:100DB000621F839FA00D611D221F749F3327A00D0A
:100DC000611D231F849F600D211D822F762F6A2FA6
:100DD00011249F5750409AF0F1F088234AF0EE0F0B
:100DE000FF1FBB1F661F771F881F91505040A9F738
:100DF0009E3F510580F00C944F060C949A065F3F7D
:100E0000E4F3983ED4F3869577956795B795F79573
:100E1000E7959F5FC1F7FE2B880F911D96958795EB
:100E200097F908950E942B06880B990B0895A1E26B
:100E30001A2EAA1BBB1BFD010DC0AA1FBB1FEE1F54
:100E4000FF1FA217B307E407F50720F0A21BB30B9F
:100E5000E40BF50B661F771F881F991F1A9469F71B
:100E600060957095809590959B01AC01BD01CF0177
:100E70000895EE0FFF1F0590F491E02D0994F8946A
:020E8000FFCFA2
:100E820088948883848483800100000000DA02173A
:100E920001450144014C6F6164696E67202E2E2E5C
:100EA2000054656D703A006E616E00696E66006F87
:100EB2007666004C4D33352053656E736F720000B9
:00000001FF
