:100000000C9462000C948A000C948A000C948A0070
:100010000C948A000C948A000C948A000C948A0038
:100020000C948A000C948A000C948A000C948A0028
:100030000C948A000C948A000C948A000C948A0018
:100040000C94E9020C948A000C948A000C948A00A7
:100050000C948A000C948A000C948A000C948A00F8
:100060000C948A000C948A000000000024002700F1
:100070002A000000000023002600290000000000E4
:10008000250028002B0004040404040404040202D4
:100090000202020203030303030301020408102007
:1000A0004080010204081020010204081020000012
:1000B0000008000201000003040700000000000027
:1000C0000000C10411241FBECFEFD8E0DEBFCDBFBA
:1000D00011E0A0E0B1E0E2EFF9E002C005900D927E
:1000E000A831B107D9F721E0A8E1B1E001C01D9224
:1000F000A632B207E1F710E0C2E6D0E004C02197D3
:10010000FE010E94F104C136D107C9F70E943303F2
:100110000C94F7040C940000809124019091250127
:100120008230910538F0880F991F880F991F059725
:100130000197F1F70895833081F028F4813099F028
:100140008230A9F008958730A9F08830C9F0843052
:10015000B1F4809180008F7D03C0809180008F7703
:1001600080938000089584B58F7784BD089584B509
:100170008F7DFBCF8091B0008F778093B000089582
:100180008091B0008F7DF9CFCF93DF93282F30E09F
:10019000F901E255FF4F8491F901E656FF4FD491E2
:1001A000F901EA57FF4FC491CC2391F081110E94CD
:1001B0009B00EC2FF0E0EE0FFF1FE458FF4FA591DE
:1001C000B4918FB7F894EC91D095DE23DC938FBF78
:1001D000DF91CF910895CF93DF9390E0FC01E65635
:1001E000FF4F24918A579F4FFC0184918823D1F0BF
:1001F00090E0880F991FFC01E859FF4FA591B49139
:10020000FC01E458FF4FC591D49161110EC09FB716
:10021000F8948C91E22FE0958E238C932881E22331
:10022000E8839FBFDF91CF9108958FB7F894EC9149
:10023000E22BEC938FBFF6CFCF93DF93C1E2D1E0F7
:1002400061E089810E94EB000E948C0060E088815F
:100250000E94EB000E948C0060E089810E94EB000C
:10026000DF91CF910C948C000F931F93CF93DF936A
:10027000D82FC8E061E0809121010E94EB000E942C
:100280008C000D2F10E060E0D0FF61E08091220132
:100290000E94EB000E948C0060E0809121010E948E
:1002A000EB000E948C0015950795D02FC15011F7D7
:1002B00061E0809121010E94EB0060E080912201C9
:1002C0000E94EB000E948C0060E0809121010E945E
:1002D000EB000E948C002091220130E0F901E255F0
:1002E000FF4F8491F901E656FF4FD491F901EA5787
:1002F000FF4FC491CC2339F181110E949B00EC2F58
:10030000F0E0EE0FFF1FEE58FF4FA591B491EC9176
:10031000ED23C1E009F4C0E0C11105C061E08091A6
:1003200022010E94EB000E948C0061E0809121017B
:100330000E94EB000E948C008C2F8170DF91CF9186
:100340001F910F910895C0E0E9CF61E080912201F3
:100350000E94EB000C948C00EF92FF920F931F937E
:10036000CF93DF93182FE92E062FC42F0E94A501EB
:1003700080E40E9434010E941C010E94A50180ECCF
:100380008C0F0E943401F12EC12FDE2D89910E9425
:1003900034018C2F8F198017C8F30E941C010E9412
:1003A000A501809123018F7080580E943401DF9154
:1003B000CF911F910F91FF90EF900C941C018F92A1
:1003C0009F92AF92BF92CF92DF92EF920F931F93C3
:1003D000CF93DF9300D000D0CDB7DEB76B0130E014
:1003E00087FF02C0819531E0E02FF0E0BE016F5F32
:1003F0007F4F5B013197C114D10431F5211124C025
:10040000822F90E08E179F0734F48A0D9B1DDC012C
:100410001C922F5FF5CFEA0DFB1D8FE380834E2DDD
:10042000602FC5010E94AC010F900F900F900F90AC
:10043000DF91CF911F910F91EF90DF90CF90BF9000
:10044000AF909F908F900895EA0DFB1D882E880F26
:10045000990810E4C601B4010E94DD04DC01982F64
:1004600081110BC0C114D10441F4211106C01082C6
:10047000332359F0108330E008C0A85FBE4F8C9141
:100480008083911102C0CD2899F36B013197D5017A
:10049000CF018A199B0997FFDDCF442309F4BFCF11
:1004A0009E012B5F3F4F9D91FD013197842F8078F6
:1004B000892B8083440FA217B307A9F7B0CFEF921F
:1004C0000F93362FBC0197FF04C066277727681B60
:1004D000790B97FD0AC08AE0E22E042F232F40E01B
:1004E0000E94DF010F91EF90089586EFF5CFCF9333
:1004F000DF9300D000D0CDB7DEB719821A821B82FD
:100500001C8240E064E0CE0101960E94AC010F9095
:100510000F900F900F90DF91CF9108953FB7F8940F
:1005200080911D0190911E01A0911F01B0912001A9
:1005300026B5A89B05C02F3F19F00196A11DB11D3E
:100540003FBFBA2FA92F982F8827BC01CD01620F7A
:10055000711D811D911D42E0660F771F881F991F35
:100560004A95D1F708958F929F92AF92BF92CF9202
:10057000DF92EF92FF920E948E024B015C0184EFAA
:10058000C82EDD24D394E12CF12C0E948E02681930
:1005900079098A099B09683E734081059105A8F392
:1005A00021E0C21AD108E108F10888EE880E83E044
:1005B000981EA11CB11CC114D104E104F10429F757
:1005C000FF90EF90DF90CF90BF90AF909F908F9073
:1005D00008951F920F920FB60F9211242F933F93FD
:1005E0008F939F93AF93BF938091190190911A01BC
:1005F000A0911B01B0911C013091180123E0230F41
:100600002D3758F50196A11DB11D20931801809337
:10061000190190931A01A0931B01B0931C018091C2
:100620001D0190911E01A0911F01B0912001019622
:10063000A11DB11D80931D0190931E01A0931F0168
:10064000B0932001BF91AF919F918F913F912F91D6
:100650000F900FBE0F901F90189526E8230F02965B
:10066000A11DB11DD2CFCF93DF9300D000D0CDB765
:10067000DEB7789484B5826084BD84B5816084BD22
:1006800085B5826085BD85B5816085BD80916E0030
:10069000816080936E001092810080918100826061
:1006A000809381008091810081608093810080919E
:1006B00080008160809380008091B100846080938D
:1006C000B1008091B00081608093B00080917A0089
:1006D000846080937A0080917A00826080937A00AF
:1006E00080917A00816080937A0080917A0080689E
:1006F00080937A001092C1008091000190910101D5
:10070000A0910201B091030189839A83AB83BC83DA
:100710008FE08093230140E064E0CE0101960E94C7
:10072000AC010E94B3028FE3898386E08A838BE564
:100730008B838FE48C8340E064E0CE0101960E94BD
:10074000AC010E94B3020E94770213E0412F62E0E5
:10075000CE0101960E94AC010E94B3020E94770272
:100760001150A0F70E94770242E062E0CE010196AC
:100770000E94AC010E94B3020E94770241E062E055
:10078000CE0103960E94AC010E94B3020E94770240
:1007900041E063E0CE0102960E94AC010E94B302E8
:1007A00020E044E060E090E080E00E945F020E9470
:1007B000B30220E044E061E090E080E00E945F024C
:1007C0000E94B30220E044E060E081E090E00E94FB
:1007D0005F020E94B30220E044E061E081E090E02B
:1007E0000E945F020E94B30220E044E060E08DE2DC
:1007F00091E00E945F020E94B30220E044E061E0C9
:100800008DE291E00E945F020E94B3020E94770293
:1008100021E042E060E08EE090E00E945F020E94F2
:10082000B3020E94770222E042E061E084E090E0BF
:100830000E945F020E94B30220E044E060E08FEF7C
:100840009FEF0E945F020E94B30220E044E060E05C
:1008500084EF9FEF0E945F020E94B30220E044E019
:1008600060E089E19CEF0E945F020E94B3020E9457
:10087000770220E043E060E08BEF9FEF0E945F0291
:100880000E94B302E12C04E020E040E06FEA71EF47
:1008900080E10E94DF010E94B30220E040E06CE2B0
:1008A00070E080E10E94DF010E94B30221E040E09D
:1008B00061ED70E080E10E94DF010E94B3020E94BE
:1008C000770202E021E040E061ED70E080E10E940B
:1008D000DF010E94B302D12CC12C20E8A22EB12C42
:1008E000A5010C2C02C0559547950A94E2F7E12C1E
:1008F00004E021E070E060E08AE00E94DF010E94F5
:10090000B3028FEFC81AD80A85E0C816D10441F7A0
:100910008FEF89838A838B838C8310E0812F88609B
:100920008093230140E064E0CE0101960E94AC0177
:100930000E94B3021F5F173089F704E010E087E0E0
:10094000C82E9FE0D92EC092230140E064E0CE0182
:1009500001960E94AC010E94B302D092230140E0B4
:1009600064E0CE0101960E94AC010E94B3020150E6
:10097000110949F740E064E084E091E00E94AC0195
:10098000FFCFCF93DF93C1E2D1E089E088838AE093
:10099000898384E690E09C838B8360E089E00E94F9
:1009A000EB0060E089810E94EB0088810E94C40016
:1009B0008981DF91CF910C94C400AA1BBB1B51E12C
:1009C00007C0AA1FBB1FA617B70710F0A61BB70BBF
:1009D000881F991F5A95A9F780959095BC01CD0164
:1009E0000895EE0FFF1F0590F491E02D0994F894FF
:0209F000FFCF37
:1009F200FFFFFFFF5E3F54793F065B4F666D7D0749
:080A02007F6F777C395E79718A
:00000001FF
