:100000000C9462000C948A000C948A000C948A0070
:100010000C948A000C948A000C948A000C948A0038
:100020000C948A000C948A000C948A000C948A0028
:100030000C948A000C948A000C948A000C948A0018
:100040000C94D4020C948A000C948A000C948A00BC
:100050000C948A000C948A000C948A000C948A00F8
:100060000C948A000C948A000000000024002700F1
:100070002A000000000023002600290000000000E4
:10008000250028002B0004040404040404040202D4
:100090000202020203030303030301020408102007
:1000A0004080010204081020010204081020000012
:1000B0000008000201000003040700000000000027
:1000C00000007F0411241FBECFEFD8E0DEBFCDBFFC
:1000D00011E0A0E0B1E0EEE6F9E002C005900D927B
:1000E000A431B107D9F721E0A4E1B1E001C01D922C
:1000F000A232B207E1F710E0C2E6D0E004C02197D7
:10010000FE010E94AF04C136D107C9F70E941E0349
:100110000C94B5040C940000809120019091210171
:100120008230910538F0880F991F880F991F059725
:100130000197F1F70895833081F028F4813099F028
:100140008230A9F008958730A9F08830C9F0843052
:10015000B1F4809180008F7D03C0809180008F7703
:1001600080938000089584B58F7784BD089584B509
:100170008F7DFBCF8091B0008F778093B000089582
:100180008091B0008F7DF9CFCF93DF93282F30E09F
:10019000F901E255FF4F8491F901E656FF4FD491E2
:1001A000F901EA57FF4FC491CC2391F081110E94CD
:1001B0009B00EC2FF0E0EE0FFF1FE458FF4FA591DE
:1001C000B4918FB7F894EC91D095DE23DC938FBF78
:1001D000DF91CF910895CF93DF9390E0FC01E65635
:1001E000FF4F24918A579F4FFC0184918823D1F0BF
:1001F00090E0880F991FFC01E859FF4FA591B49139
:10020000FC01E458FF4FC591D49161110EC09FB716
:10021000F8948C91E22FE0958E238C932881E22331
:10022000E8839FBFDF91CF9108958FB7F894EC9149
:10023000E22BEC938FBFF6CFCF93DF93CDE1D1E0EC
:1002400061E089810E94EB000E948C0060E088815F
:100250000E94EB000E948C0060E089810E94EB000C
:10026000DF91CF910C948C000F931F93CF93DF936A
:10027000D82FC8E061E080911D010E94EB000E9430
:100280008C000D2F10E060E0D0FF61E080911E0136
:100290000E94EB000E948C0060E080911D010E9492
:1002A000EB000E948C0015950795D02FC15011F7D7
:1002B00061E080911D010E94EB0060E080911E01D1
:1002C0000E94EB000E948C0060E080911D010E9462
:1002D000EB000E948C0020911E0130E0F901E255F4
:1002E000FF4F8491F901E656FF4FD491F901EA5787
:1002F000FF4FC491CC2339F181110E949B00EC2F58
:10030000F0E0EE0FFF1FEE58FF4FA591B491EC9176
:10031000ED23C1E009F4C0E0C11105C061E08091A6
:100320001E010E94EB000E948C0061E080911D0183
:100330000E94EB000E948C008C2F8170DF91CF9186
:100340001F910F910895C0E0E9CF61E080911E01F7
:100350000E94EB000C948C00EF92FF920F931F937E
:10036000CF93DF93182FE92E062FC42F0E94A501EB
:1003700080E40E9434010E941C010E94A50180ECCF
:100380008C0F0E943401F12EC12FDE2D89910E9425
:1003900034018C2F8F198017C8F30E941C010E9412
:1003A000A50180911F018F7080580E943401DF9158
:1003B000CF911F910F91FF90EF900C941C01CF9360
:1003C000DF9300D000D0CDB7DEB719821A821B822E
:1003D0001C8240E064E0CE0101960E94AC010F90C7
:1003E0000F900F900F90DF91CF9108953FB7F89441
:1003F0008091190190911A01A0911B01B0911C01EB
:1004000026B5A89B05C02F3F19F00196A11DB11D6F
:100410003FBFBA2FA92F982F8827BC01CD01620FAB
:10042000711D811D911D42E0660F771F881F991F66
:100430004A95D1F708958F929F92AF92BF92CF9233
:10044000DF92EF92FF920E94F6014B015C0184EF74
:10045000C82EDD24D394E12CF12C0E94F6016819FA
:1004600079098A099B09683E734081059105A8F3C3
:1004700021E0C21AD108E108F10888EE880E83E075
:10048000981EA11CB11CC114D104E104F10429F788
:10049000FF90EF90DF90CF90BF90AF909F908F90A4
:1004A0000895AF92BF92CF92DF92EF92FF920F9397
:1004B0001F93CF93DF9300D000D0CDB7DEB77B0181
:1004C00030E087FF02C0819531E0E22FF0E0BE010D
:1004D0006F5F7F4F6B01E114F10439F5411125C0C5
:1004E00030E03197832F90E08E179F0734F48C0D06
:1004F0009D1DDC011C923F5FF5CFEC0DFD1D8FE3D0
:100500008083402F622FC6010E94AC010F900F9094
:100510000F900F90DF91CF911F910F91FF90EF906F
:10052000DF90CF90BF90AF9008953197EC0DFD1DF7
:10053000A82E880FBB0810E4C701B5010E949B04D8
:10054000DC01982F81110BC0E114F10441F4411139
:1005500006C01082332359F0108330E008C0AC5F2E
:10056000BE4F8C918083911102C0EF2899F37B01DB
:100570003197CF018C199D0997FFDECFC2CF0F9322
:10058000362FBC0197FF04C066277727681B790BBD
:1005900097FD08C08AE0022F242F432F0E945102AA
:1005A0000F91089586EFF7CF1F920F920FB60F921B
:1005B00011242F933F938F939F93AF93BF93809179
:1005C000150190911601A0911701B0911801309179
:1005D000140123E0230F2D3758F50196A11DB11DFD
:1005E000209314018093150190931601A093170195
:1005F000B09318018091190190911A01A0911B01EB
:10060000B0911C010196A11DB11D80931901909319
:100610001A01A0931B01B0931C01BF91AF919F9150
:100620008F913F912F910F900FBE0F901F901895B3
:1006300026E8230F0296A11DB11DD2CFCF93DF93E1
:1006400000D000D000D0CDB7DEB7789484B58260FA
:1006500084BD84B5816084BD85B5826085BD85B566
:10066000816085BD80916E00816080936E001092E4
:10067000810080918100826080938100809181005F
:1006800081608093810080918000816080938000F0
:100690008091B10084608093B1008091B00081604E
:1006A0008093B00080917A00846080937A0080917A
:1006B0007A00826080937A0080917A0081608093D2
:1006C0007A0080917A00806880937A001092C1004D
:1006D0008FE080931F018FE3898386E08A838BE517
:1006E0008B838FE48C8386E68D838DE68E8340E05A
:1006F00066E0CE0101960E94AC010E941B020E949E
:10070000DF0113E0412F62E0CE0101960E94AC01AF
:100710000E941B020E94DF011150A0F70E94DF011E
:1007200042E062E0CE0101960E94AC010E941B02F1
:100730000E94DF0141E062E0CE0103960E94AC011D
:100740000E941B020E94DF0141E063E0CE0102969D
:100750000E94AC010E941B0220E046E060E090E0B5
:1007600080E00E94BF020E941B0220E046E061E0A0
:1007700090E080E00E94BF020E941B0220E046E061
:1007800060E081E090E00E94BF020E941B0220E036
:1007900046E061E081E090E00E94BF020E941B02FF
:1007A00020E046E060E08DE291E00E94BF020E94FE
:1007B0001B0220E046E061E08DE291E00E94BF0272
:1007C0000E941B020E94DF0121E042E060E08EE017
:1007D00090E00E94BF020E941B020E94DF0122E003
:1007E00042E061E084E090E00E94BF020E941B02B0
:1007F00020E046E060E08FEF9FEF0E94BF020E9482
:100800001B0220E046E060E084EF9FEF0E94BF0201
:100810000E941B0220E046E060E089E19CEF0E941C
:10082000BF020E941B020E94DF0120E046E060E060
:100830008BEF9FEF0E94BF020E941B0200E026E0A8
:1008400040E06FEA71EF80E10E9451020E941B02BA
:1008500026E040E06CE270E080E10E9451020E94DC
:100860001B0226E041E061ED70E080E10E94510250
:100870000E941B020E94DF0122E041E061ED70E076
:1008800080E10E9451020E941B0219831A831B837C
:100890001C831D831E8310E0812F886080931F01BD
:1008A00040E066E0CE0101960E94AC010E941B026E
:1008B0001F5F173089F704E010E087E0E82E9FE023
:1008C000F92EE0921F0140E066E0CE0101960E9401
:1008D000AC010E941B02F0921F0140E066E0CE01D5
:1008E00001960E94AC010E941B020150110949F7B8
:1008F00040E064E080E091E00E94AC01FFCFCF9344
:10090000DF93CDE1D1E089E088838AE0898384E6C2
:1009100090E09C838B8360E089E00E94EB0060E0C4
:1009200089810E94EB0088810E94C4008981DF9147
:10093000CF910C94C400AA1BBB1B51E107C0AA1F96
:10094000BB1FA617B70710F0A61BB70B881F991F70
:100950005A95A9F780959095BC01CD010895EE0FA9
:0E096000FF1F0590F491E02D0994F894FFCF4D
:10096E005E3F54793F065B4F666D7D077F6F777CE8
:04097E00395E7971F4
:00000001FF
